:030000000204FCFB
:0C04FC00787FE4F6D8FD75813C020543D2
:1006A800C0F9A4B0999282F88090BFFF8883C6A150
:1006B800868E89C78CC1C8C0F9A4B0999282F88087
:1006C800900102040810204080000000000000C0D3
:0C06D800F9A4B0999282F88090BF88C607
:10083700092AFEFDFBF7EFDFBF7FFF023B00000148
:1008470023000221000002330000012409012504CE
:06085700013900013A0026
:0607E100F5807F017E009F
:1007E700E4FDFCC3ED9FEE6480F8EC648098501440
:1007F7007B4D7A03EB1B70011AEB4A70F70DBD00B6
:04080700010C80DF81
:01080B0022CA
:080992007F067ED3DEFEDFFCD0
:01099A00223A
:08099B007F027E27DEFEDFFC77
:0109A3002231
:1006E400E5A0541F4480F5A07580FF53A01FE5A02A
:1006F400541F44A0F5A05380AF53A01FE5A0541F7E
:1007040044C0F5A07580FF53A01FE5A0541F44E02A
:09071400F5A07580FF53A01F221F
:080322008B088A09890A8D0B82
:10032A00E4F50CC37407950CFFE50BA807088002D7
:10033A00C313D8FC30E044E5A0541F44E0F5A0758F
:10034A0080FFE5A0541F44C0F5A0AF0C7401A807B4
:10035A00088002C333D8FC1207E1E5A0541F44E029
:10036A00F5A0AB08AA09A90A850C827583001200B8
:10037A001E9006D793F5807F01802EE5A0541F4476
:10038A00E0F5A07580FFE5A0541F44C0F5A0AF0CAE
:10039A007401A807088002C333D8FC1207E1E5A05C
:1003AA00541F44E0F5A07580FF1207E7050CE50C21
:0803BA00D39407500302032D48
:0103C2002218
:100665007C007D641200B27E007F0ACFCDCFCECC58
:08067500CE1200B2AD077F06B2
:10067D008F0DA9051207E3E5A0541F44C0F5A0E5B1
:10068D000D9006C993F580E5A0541F44E0F5A0E94F
:0B069D009006A893F5807F010207E79C
:10080C008F0DA9051207E3E5A0541F44C0F5A0E520
:10081C000D9006C993F580E5A0541F44E0F5A0E9BE
:0B082C009006B493F5807F010207E7FF
:10095B00E5A0541F4480F5A0742A2FF8E6F58022F9
:04097A00D2A07F0583
:08097E0000AE071FEE70F92224
:0F096B00D2A112097AC2A17F0512097EC2A02271
:0C098600C2A112097AD2A17F0502097EED
:10091B00C2A0A20092A17F0512097E12097AC2A081
:07092B00D2A17F0502097E45
:0B08E50012098612096B7F911207B503
:1008F00012097AA2A19201C2A07F0512097EA2016B
:0109000022D4
:0207B500AD078E
:1007B700E4FCC2A07F0512097EED30E704D2A180D8
:1007C70002C2A17F0512097ED2A0ED25E0FD7F05BB
:0907D70012097E0CBC08DBC2A073
:0107E00022F6
:1008C800E4FC12097AED25E0FD30A103430501C2DD
:0C08D800A07F0512097E0CBC08E8AF05EB
:0108E40022F1
:0909A400D2B3D2B2D2B1D2B0221A
:10090100758CFF758AFF758D3C758BB0758916D214
:0A091100A9D2ABD2AFD28CD28E2255
:03000B0002000EE2
:0D000E00C0E0053CE53C7002053BD0E0324F
:03001B0002085E7A
:10085E00C0E0C0D0758D3C758BB00523E523B41474
:10086E000F853B21853C22753B00753C00752300AE
:05087E00D0D0D0E032F3
:1008A600AB05AA0712096B7FA01207B51208F0AFB5
:1008B600021207B51208F0AF031207B51208F002CC
:0208C6000986A1
:02071D00AB0728
:10071F00C2AF12096B7FA01207B51208F0AF031218
:10072F0007B51208F012096B7FA11207B51208F076
:10073F001208C8AD07D20012091B1208F012098661
:04074F00D2AFAF0571
:010753002283
:1003C3007F0212095B7D05E4FF12080CD3E522943A
:1003D3000FE52194274012AE21AF227C037DE81262
:1003E300005DAD077F0312067DD3E52294E7E52187
:1003F30094034017AE21AF227C037DE812005D7C9D
:10040300007D0A12005D7F0412067DD3E52294630A
:10041300E52194004017AE21AF227C007D641200D9
:100423005D7C007D0A12005D7F0512067DD3E52207
:100433009409E52194004017AE21AF227C007D0A88
:1004430012005D7C007D0A12005D7F0612067DAE00
:0F04530021AF227C007D0A12005D7F0702067D2B
:10026E007F0312095B7D0AE4FF12080CAE21AF2258
:10027E00AB07AA06E4F9F87F407E427D0FFC12061A
:10028E00218E338F34D3E522940FE5219427400E2F
:10029E007C037DE812005DAD077F0312067DD3E57A
:1002AE002294E7E52194034017AE33AF347C037DEF
:1002BE00E812005D7C007D0A12005D7F0412067D4F
:1002CE00D3E5229463E52194004017AE33AF347C1E
:1002DE00007D6412005D7C007D0A12005D7F0512B8
:1002EE00067DD3E5229409E52194004017AE33AF85
:1002FE00347C007D0A12005D7C007D0A12005D7F59
:10030E000612067DAE33AF347C007D0A12005D7F8F
:04031E000702067D4F
:100462007F0412095B12096B7F901207B51208F024
:100472007F011207B51208F01208E51208C87528A4
:10048200008F291208F0120986AE28AF297C007D60
:100492006412004B7D331200B28E378F387D09E42F
:1004A200FF12080C7D0A7F0112067D7D017F021278
:1004B200067DAE37AF38120665AE37AF387C007DA9
:1004C2000A1200B27F0712067DE5A0541F44C0F550
:1004D200A09006CEE493F580E5A074FFF5A0AE37B8
:1004E200AF387C007D641200B274A82FF5827406C6
:0A04F2003EF583E4932480F5802298
:1001B600D3E5369500E5006480F8E535648098401F
:1001C6000DE5A0541F4480F5A07580EE80057F04E0
:1001D60012095B12096B7F901207B51208F07F03B4
:1001E6001207B51208F01208E51208C87526008F26
:1001F600271208F0120986AE26AF277C007D64120E
:10020600004B7D331200B28E358F367D09E4FF1226
:10021600080C7D0A7F0112067D7D037F0212067D92
:10022600AE35AF36120665AE35AF367C007D0A12A6
:1002360000B27F0712067DE5A0541F44C0F5A090CA
:1002460006CEE493F580E5A074FFF5A0AE35AF3693
:100256007C007D641200B274A82FF58274063EF508
:0802660083E4932480F580225B
:1005880020B3517F3C7E001207E720B34712026E6A
:1005980020B33C7F3C7E001207E720B3321204628E
:1005A80012075420B3247F3C7E001207E720B31AB9
:1005B8001203C320B30F7F3C7E001207E720B30568
:1005C80012058880FB20B3E880FB20B3D080FB2095
:0505D800B3BB80FB2213
:1007540020B20F7F0A7E001207E720B2050525307C
:10076400B2FDE52520E003120462E52530E0111214
:1007740001B620B2FA7F0A7E001207E720B2F02207
:010784002252
:1007850020B12C7F327E001207E720B122E5392502
:10079500E02400F8A63508A6360539AF3A053AEF44
:1007A50025E02400F8E6F52108E6F52230B1FD2222
:1005DD0090000020B0117F327E001207E720B00797
:1005ED00AD227F031208A620B029A3D3E58294F48F
:1005FD00E58364809481401B7F0812095B20B01352
:10060D00A3D3E58294E8E583648094834005E4F503
:03061D0083F582E0
:0106200022B7
:100883007F0212071DD3E5369F7480F865359840C3
:100893000CE5A0541F4480F5A07580EE227F04125E
:0208A300095BEF
:0108A5002230
:100932007F0312071DD3E5229FE521940040057F26
:040942000112095B3A
:01094600228E
:100947001206E41209011205DD1207851205881245
:0409570003C380F264
:10050800020947E493A3F8E493A34003F68001F2B9
:1005180008DFF48029E493A3F85407240CC8C333F4
:10052800C4540F4420C8834004F456800146F6DFC3
:10053800E4800B0102040810204080900837E47E14
:10054800019360BCA3FF543F30E509541FFEE493B8
:10055800A360010ECF54C025E060A840B8E493A37F
:10056800FAE493A3F8E493A3C8C582C8CAC583CAAA
:10057800F0A3C8C582C8CAC583CADFE9DEE780BE62
:01085D00009A
:10001E00BB010CE58229F582E5833AF583E0225097
:10002E0006E92582F8E622BBFE06E92582F8E222E1
:0D003E00E58229F582E5833AF583E49322FB
:10004B00EF8DF0A4A8F0CF8CF0A428CE8DF0A42EC9
:02005B00FE2283
:10005D00BC000BBE0029EF8DF084FFADF022E4CC87
:10006D00F875F008EF2FFFEE33FEEC33FCEE9DEC50
:10007D00984005FCEE9DFE0FD5F0E9E4CEFD22ED96
:10008D00F8F5F0EE8420D21CFEADF075F008EF2FE0
:10009D00FFED33FD4007985006D5F0F222C398FDD1
:0500AD000FD5F0EA226E
:1000B200C2D5EC30E709B2D5E4C39DFDE49CFCEE69
:1000C20030E715B2D5E4C39FFFE49EFE12005DC384
:1000D200E49DFDE49CFC800312005D30D507C3E47F
:0600E2009FFFE49EFE22D8
:10062100C2D5E830E70FB2D5E4C39BFBE49AFAE404
:1006310099F9E498F8EC30E717B2D5120657120190
:1006410024E4C39BFBE49AFAE499F9E498F8800363
:1006510012012430D50DE4C39FFFE49EFEE49DFD0D
:04066100E49CFC22F7
:1000E80075F008758200EF2FFFEE33FECD33CDCCCF
:1000F80033CCC58233C5829BED9AEC99E582984052
:100108000CF582EE9BFEED9AFDEC99FC0FD5F0D62E
:10011800E4CEFBE4CDFAE4CCF9A88222B800C1B958
:100128000059BA002DEC8BF084CFCECDFCE5F0CB96
:10013800F97818EF2FFFEE33FEED33FDEC33FCEBCF
:1001480033FB10D703994004EB99FB0FD8E5E4F98A
:10015800FA227818EF2FFFEE33FEED33FDEC33FC77
:10016800C933C910D7059BE99A4007EC9BFCE99A6B
:10017800F90FD8E0E4C9FAE4CCFB2275F010EF2FB0
:10018800FFEE33FEED33FDCC33CCC833C810D707B0
:100198009BEC9AE899400AED9BFDEC9AFCE899F8EB
:0E01A8000FD5F0DAE4CDFBE4CCFAE4C8F9227E
:00000001FF
